:1000030000000000000000000000000000000404E5
:10001300040404000004000014140A00000000009B
:100023000000000000000A0A1F0A0A1F0A0A000053
:1000330000040E1505060C14150E0400000012151D
:100043000D152E2C2A1200000000040A0A3615157D
:100053002916000002020100000000000000000059
:100063001008080404040404080810000204040827
:10007300080808080404020000000004150E0E1509
:100083000400000000000008083E0808000000000B
:100093000000000000000000020201000000000058
:1000A300003F00000000000000000000000000000E
:1000B30000020000002010100808040402020100DE
:1000C30000000E1111111111110E000000000406A1
:1000D30004040404040E000000000E1111080402BD
:1000E300011F000000000E11100C1010110E000073
:1000F3000000080C0C0A091F081C000000001F0167
:10010300010F1110110E000000000C12010D13114C
:10011300110E000000001E1008080404040400006F
:1001230000000E11110E1111110E000000000E112E
:100133001119161009060000000000000400000059
:10014300000400000000000000040000000404009C
:100153000000100804020204081000000000000060
:100163003F003F00000000000000020408101008D8
:100173000402000000000E11110804040004000032
:1001830000001C22292D2D1D221C00000000040448
:100193000C0A0A1E1233000000000F12120E121274
:1001A300120F000000001E1101010101110E0000D9
:1001B30000000F1212121212120F000000001F1281
:1001C3000A0E0A02121F000000001F120A0E0A0282
:1001D3000207000000001C1201013911120C00007B
:1001E30000003312121E12121233000000001F040B
:1001F30004040404041F000000003E080808080863
:1002030008080907000037120A060A12123700000D
:100213000000070202020202223F000000003B1B13
:100223001B1B15151535000000003B1216161A1A74
:100233001217000000000E1111111111110E000010
:1002430000000F12120E02020207000000000E113E
:1002530011111117190E180000000F12120E0A12B5
:100263001237000000001E1101060810110F0000D4
:1002730000001F1504040404040E000000003312E0
:1002830012121212120C000000003312120A0A0C8E
:10029300040400000000151515150E0A0A0A0000D3
:1002A30000001B0A0A04040A0A1B000000001B0AC0
:1002B3000A0A0404040E000000001F0908040402D3
:1002C300121F00001C0404040404040404041C009E
:1002D3000002020404040808081010000E080808AD
:1002E3000808080808080E00040A000000000000BF
:1002F3000000000000000000000000000000003FBC
:1003030002040000000000000000000000000000E4
:10031300000C121C123C000000030202020E121217
:10032300120E000000000000001C1202120C00005C
:1003330000181010101C1212123C000000000000E4
:10034300000C121E021C000000182404041E0404E6
:10035300041E000000000000003C120C021C221CC2
:1003630000030202020E12121237000000040400FE
:1003730000060404040E000000080800000C08082E
:100383000808080700030202021A0A060A130000FB
:100393000007040404040404041F00000000000018
:1003A300000F15151515000000000000000F1212B4
:1003B3001237000000000000000C1212120C0000A3
:1003C30000000000000F1212120E020700000000CE
:1003D300001C1212121C103800000000001B060241
:1003E3000207000000000000001E020C101E0000A7
:1003F30000000004041E0404041C000000000000AC
:10040300001B1212123C000000000000001B0A0A2D
:1004130004040000000000000015150E0A0A000085
:1004230000000000001B0A040A1B0000000000007B
:10043300003312120C08040300000000001E08041D
:10044300041E000018080808080C0808080818000B
:100453000808080808080808080808080604040427
:100463000408040404040600160900000000000048
:040473000000000085
:041425007F647E0062
:10142900EF4E60157D087C07ED1DAA0470011C4A6A
:0914390070F6EF1F70EA1E80E757
:011442002287
:1013FF00C294E4FEEEC39408748094805015C2909A
:10140F00EF30E704D2918002C291D290EF25E0FF36
:05141F000E80E1D294F3
:0114240022A5
:0F1456001214747F051214657F3C1214657F3CDD
:031465000213FF70
:05144300E0FEA3E0FF44
:0E144800AD07AC06ECFF1213FFAF050213FF59
:08147400C2931213FFD2932270
:1013CA0090002AEEF0A3EFF0A3ECF0A3EDF07F2A51
:1013DA0012147490002A121443AF03AE0212144876
:1013EA007F2B121474A31214439000301214437FFB
:0513FA002C1214742206
:100CFD00C292121425D292121425D2951214257F68
:100D0D00111214747F787E001214297FB1121456BB
:100D1D007FB21214567FB31214561214597FB412A7
:100D2D0014747F031214657FC01214747F2812147B
:100D3D00657F081214657F041214657FC112147447
:100D4D007FC01214657FC21214747F0D121465E4F6
:100D5D00FF1214657FC31214747F8D1214657F2AE0
:100D6D001214657FC41214747F8D1214657FEE12F8
:100D7D0014657FC51214747F1A1214657F36121410
:100D8D00747FC01214657FE01214747F0412146511
:100D9D007F221214657F071214657F0A1214657F76
:100DAD002E1214657F301214657F251214657F2A6B
:100DBD001214657F281214657F261214657F2E127A
:100DCD0014657F3A121465E4FF1214657F01121445
:100DDD00657F031214657F131214657FE11214747D
:100DED007F041214657F161214657F061214657F39
:100DFD000D1214657F2D1214657F261214657F2345
:100E0D001214657F271214657F271214657F251232
:100E1D0014657F2D1214657F3B121465E4FF1214C7
:100E2D00657F011214657F041214657F131214651A
:0F0E3D007F3A1214747F051214657F2902147412
:1011A800900000EEF0A3EFF0A3ECF0A3EDF0A3EABB
:0411B800F0A3EBF0C5
:1011BC00C006C00724FFFBEA34FFFAA3E0FEA3E05D
:1011CC0024FFFFEE34FF900030F0A3EFF0D007D0F7
:1011DC00061213CA900002E0FFA3E090000ACFF0C1
:1011EC00A3EFF0900006E0FEA3E0FFC390000BE03D
:1011FC009F90000AE09E5034900000E0FEA3E0FBBC
:10120C00AA06D3900005E09B900004E09A400D9054
:10121C0000081214430BBB00010A80E690000BE09F
:0C122C0004F070BF90000AE004F080B7EE
:011238002293
:1012C300900077FEE0FCA3E0FDC3900073E09DFD7A
:0E12D300900072E09CFC900075E0FAA3E0FB36
:1012E100900024EEF0A3EFF0900028EAF0A3EBF0D9
:1012F100900026ECF0A3EDF0900024E0FAA3E0FBCF
:10130100FFAE02C007A3E0FFA3E0900030CFF0A33F
:10131100EFF0D0071213CA900028E0FEA3E0FF020D
:0213210014486E
:0E07A700900032EEF0A3EFF0A3ECF0A3EDF023
:1007B500E490003EF0A3F0A3F0A3F0900032E0FE39
:1007C500A3E0FFC3EB9FFFEA9E900042F0A3EFF08A
:1007D500900034E0FAA3E0FBC3900039E09BFE9063
:1007E5000038E09A900044F0A3CEF0900032E0FF8C
:1007F500A3E090004CCFF0A3EFF0A3EAF0A3EBF059
:10080500900042E0FEA3E0FFD39400EE6480948064
:10081500400A900048E4F0A304F08021EF4E7008F0
:10082500900048F0A3F0801574FF900048F0A3F005
:10083500C3E49FFFE49E900042F0A3EFF0900044D4
:10084500E0FEA3E0FFD39400EE64809480400A901C
:10085500004AE4F0A304F08021EF4E700890004AAE
:10086500F0A3F0801574FF90004AF0A3F0C3E49F55
:10087500FFE49E900044F0A3EFF0900044E0FEA357
:10088500E0FF900042E0FCA3E0FDD39FEE6480F81A
:10089500EC6480989000464007ECF0A3EDF08005ED
:1008A500EEF0A3EFF0E490003CF0A3F0900047E0F9
:1008B5002401FF900046E03400FEC390003DE09F18
:1008C50090003CE09E400302099490004CE0FEA39A
:1008D500E0FFA3E0FCA3E0FD90003A1212DC9000DB
:1008E50042E0FEA3E0FF90003FE02FF090003EE0E5
:1008F5003EF0900044E0FEA3E0FF900041E02FF0C1
:10090500900040E03EF0900046E0FEA3E0FF90003E
:100915003EE0FCA3E0FDD39FEE6480F8EC64809894
:100925004020ED9FFFEC9E90003EF0A3EFF090007D
:1009350048E0FEA3E0FF90004DE02FF090004CE072
:100945003EF0900046E0FEA3E0FF900040E0FCA3EF
:10095500E0FDD39FEE6480F8EC6480984020ED9F25
:10096500FFEC9E900040F0A3EFF090004AE0FEA35C
:10097500E0FF90004FE02FF090004EE03EF0900039
:0F0985003DE004F0700690003CE004F00208B181
:010994002240
:1010C20090007FEAF0A3EBF090007BEEF0A3EFF04C
:1010D200A3ECF0A3EDF0C007A3E0FAA3E0FB9000BD
:1010E2007DE0FFA3E0900038CFF0A3EFF090008303
:1010F200E0FFA3E090003ACFF0A3EFF0D007120791
:10110200A790007BE0FAA3E0FBFFAE02C007A3E0DA
:10111200FCA3E0FD900081E0FFA3E0900038CFF057
:10112200A3EFF0900083E0FFA3E090003ACFF0A39A
:10113200EFF0D0071207A7900081E0FCA3E0FD903A
:10114200007FE0FAA3E0FBA3E0FFA3E0900038CF2A
:10115200F0A3EFF0900083E0FFA3E090003ACFF01D
:10116200A3EFF090007BE0FEA3E0FF1207A7900040
:101172007FE0FAA3E0FBFFAE02C00790007DE0FC37
:10118200A3E0FD900081E0FFA3E0900038CFF0A340
:10119200EFF0900083E0FFA3E090003ACFF0A3EFDE
:0611A200F0D0070207A7D0
:100B6100900070EEF0A3EFF0A3ECF0A3EDF0A90379
:100B7100E4900077F0A3F0E9FFA3E4F0A3EFF09095
:100B81000079E0FEA3E0FFD3900078E09FEE64805F
:100B9100F8900077E06480984003020CFCC3900059
:100BA10071E09FFF900070E09E1212C3900079E007
:100BB100FEA3E0FF900071E02FFF900070E03E1275
:100BC10012C3900077E0FEA3E0FFC3900071E09FA5
:100BD100FF900070E09EFE900079E0FCA3E0FD90A4
:100BE1000073E02DFD900072E03C1212D890007766
:100BF100E0FEA3E0FFC3900071E09FFF900070E072
:100C01009E9000791212C6900079E0FEA3E0FF9059
:100C11000071E02FFF900070E03EFE900077E0FC55
:100C2100A3E0FD900073E02DFD900072E03C1212F4
:100C3100D8900077E0FEA3E0FF900071E02FFF90D5
:100C41000070E03EFE9000791212C7900077E0FE3E
:100C5100A3E0FF900071E02FFF900070E03EFE9056
:100C61000079E0FCA3E0FD900073E02DFD9000729F
:100C7100E03C1212D8900079E0FEA3E0FFC390009F
:100C810071E09FFF900070E09EFE900077E0FCA372
:100C9100E0FD900073E02DFD900072E03C1212D84F
:100CA100900078E004F07006900077E004F0900086
:100CB10079E0FCA3E0FDFFAE04120617AA06AB071C
:100CC100900077E0FCA3E0FDFFAE04120617EF2BC6
:100CD100FDEE3AFCE9F5F0A4FFD3ED9FE5F0648069
:100CE100F8EC6480985003020B8090007AE024FFB6
:0B0CF100F0900079E034FFF0020B806F
:010CFC0022D5
:10099500900012ECF0A3EDF0A3EBF0900010EEF058
:0309A500A3EFF0CD
:1009A800E490001DF0900022EEF0A3EFF090001903
:1009B800E0F9C31390001CF0E0FF131313541FFD5C
:1009C8007C00EF54077E0060047F0180027F00EF07
:1009D8002DFFEE3CFEE9FD7C00120617900020EE8C
:1009E800F0A3EFF0900014E024E0F0900012E0FC97
:1009F800A3E0FD90001CE0FF7E00900010E0FAA349
:100A0800E02FFFEE3ACF24FFFBEF34FFFAE9FFA314
:100A1800E0F8A3E02FFFEE38CF24FFCF34FF90009B
:100A280030F0A3EFF0900010E0FEA3E0FF1213CA2D
:100A3800E490001EF0A3F0900020E0FEA3E0FF90F9
:100A4800001EE0FCA3E0FDC39FEC9E4003020B6088
:100A5800900019E0640C6003020B60900014E075CC
:100A6800F00CA42403F582E5F03400F583E5822D2B
:100A7800F582E5833CF583E49390001BF0E4F9E903
:100A8800C39408748094804003020B4F90001AE0CE
:100A9800703BFE04A801088005C333CE33CED8F9D5
:100AA800FF90001BE0FDEF5D60059000158003904E
:100AB800001712144390001DE004F090001CE0FFA2
:100AC800A3E08FF084E5F0707AF0020B4F7E00749B
:100AD80001A801088005C333CE33CED8F9FF9000B2
:100AE8001BE0FDEF5D6014900010E0FEA3E0FFA3A3
:100AF800E0FCA3E0FD9000151212DC900011E00468
:100B0800F07006900010E004F0900022E0FEA3E0F0
:100B1800FFC3900011E09FFD900010E09EFC900044
:100B28001CE07A00B5051CEAB50418900010EEF038
:100B3800A3EFF0900013E004F0700C900012E004B2
:100B4800F0800409020A8790001FE004F070069004
:080B5800001EE004F0020A3F58
:010B60002272
:10123900900063EEF0A3EFF0A3ECF0A3EDF0A3EBC5
:10124900F0A3EAF0A3E9F0900067E0FBA3E0FAA3BA
:10125900E0F91205FEFB6061900065E0FCA3E0FD8A
:1012690090006AE0FFA3E0900015CFF0A3EFF090A3
:10127900006CE0FFA3E0900017CFF0A3EFF090001F
:101289006EE0900019F090006FE090001AF0900065
:1012990063E0FEA3E0FF12099590006EE0C313FF1F
:1012A900900064E02FF0900063E03400F090006853
:0A12B900E475F001120629808E2270
:07137A00C3EF9E14FD7F0A82
:08138100900010EFF0A3EDF065
:10138900A312077600000001900011E0FF14F0EFAE
:101399006020A3E0F8A3E0F9A3E0FAA3E0FB900042
:1013A90010E0FFE4FCFDFE12063F90001212076AEE
:1013B90080D6900012E0FCA3E0FDA3E0FEA3E0FFCD
:0113C9002201
:100F9600900000EEF0A3EFF0A3ECF0A3EDF0A3EACF
:040FA600F0A3EBF0D9
:100FAA00E490000EF090000BE0C31390000FF0E401
:100FBA0090000CF0900006E0FF90000CE0FEC39F4A
:100FCA0040030210C112137AA804A905AA06AB07A6
:100FDA00900004E0FEA3E0FFE4FCFD1206CAE47BF5
:100FEA000AFAF9F81206CA90000DEBF0A3E0706550
:100FFA00900006E014FF90000CE0FEC39F5056A339
:10100A00E0704C90000FE0FFEE8FF0A4FF9000011B
:10101A00E02FFF900000E035F0FE900002E0FCA314
:10102A00E0FD900007E0FBA3E0900015CBF0A3EBF6
:10103A00F0900009E0FBA3E0900017CBF0A3EBF0DF
:10104A0090000BE0900019F0E4A3F07B20805C9004
:10105A00000E7401F090000FE0FF90000CE08FF09A
:10106A00A4FF900001E02FFF900000E035F0FEC0E1
:10107A0007900002E0FCA3E0FD90000DE02430FBA5
:10108A00900007E0FFA3E0900015CFF0A3EFF090E7
:10109A000009E0FFA3E0900017CFF0A3EFF0900063
:1010AA000BE0900019F0E4A3F0D007120995900024
:0710BA000CE004F0020FBE80
:0110C100220C
:0E0E4C00900050EEF0A3EFF0A3ECF0A3EDF059
:100E5A0090005DE0C313900060F0E4FFFE7DC87C63
:100E6A0042900054E0F8A3E0F9A3E0FAA3E0FB12F1
:100E7A00047712057D900061EEF0A3EFF0E4900094
:100E8A005EF0900058E0FF90005EE0FEC39F4003D2
:100E9A00020F9512137AA804A905AA06AB079000B7
:100EAA0061E0FEA3E0FFE4FCFD1206CAE47B0AFA55
:100EBA00F9F81206CA90005FEBF0900058E0FF24A0
:100ECA00FEFE90005EE06E7060EF24FEFFE434FFE9
:100EDA00FE900060E0FD7C00120617900051E02FA2
:100EEA00FF900050E03EFE900052E0FCA3E0FD902F
:100EFA000059E0FBA3E0900015CBF0A3EBF09000C3
:100F0A005BE0FBA3E0900017CBF0A3EBF090005D51
:100F1A00E0900019F0E4A3F07B2E12099590005E90
:100F2A00E004F0900058E004F0900060E0FF9000C8
:100F3A005EE08FF0A4FF900051E02FFF900050E098
:100F4A0035F0FEC007900052E0FCA3E0FD90005F80
:100F5A00E02430FB900059E0FFA3E0900015CFF0A9
:100F6A00A3EFF090005BE0FFA3E0900017CFF0A39F
:100F7A00EFF090005DE0900019F0E4A3F0D00712C2
:0B0F8A00099590005EE004F0020E8C60
:010F95002239
:10132300120CFD900006E4F0A374A0F0E4A3F0A374
:10133300F07B80FAFDFCFFFE1211A8C280A280E4BC
:10134300FCFDFE33FF90008512076A900085A3A37E
:10135300E0FEA3E0FBAA069000067401F074FFA36D
:10136300F0A3F0E4A3F0A3F0A3740CF0E4FDFC7F7E
:0713730032FE120F9680D438
:10047700EC4D6011E8497017ED33EC3304600DE47F
:10048700FCFFFEFD22E933E8330470F80205E912A8
:1004970005B458046009E4CC2481500628500902A9
:1004A70005F32840030205F0C0E0EB4A7044B98029
:1004B70006D0E0FB0205DFEF4E701CBD8008EBFFA6
:1004C700EAFEE9FD80EBE98DF0A4FEE5F0020560A8
:1004D700E9CDF9EAFEEBFFEF89F0A4FCE5F0CE8960
:1004E700F0A42EFFE435F0CD89F0A42DFEE435F01D
:1004F7008067EF4E7005BD80D780C3EF8BF0A4AC4B
:10050700F0EE8BF0A42CFCE435F0F8EF8AF0A42C85
:10051700E5F038FCE433CB8DF0A42CFCE5F03BF898
:10052700EE8AF0A42CFCE5F038F8E433CF89F0A488
:100537002CFCE5F038CF3400CE89F0A42FFFE5F08E
:100547003EFEE433C98DF0A42EFEE5F039CD8AF0E6
:10055700A42FFFE5F03EFEE43DFD33D0E0FB50075E
:100567000BBB000F0205F3EC2CFCEF33FFEE33FE61
:06057700ED33FD0205CB8F
:10057D00EDD2E7CD33EC3392D524814006E4FFFE76
:10058D00FDFC22FCE4CFCECDCC24E0501174FF80D5
:10059D00EDC3CC13CCCD13CDCE13CECF13CF047072
:0705AD00F030D5DE02075C0F
:1005B400E9D2E7C933E833F892D5EDD2E7CD33EC8D
:0705C40033FC5002B2D52206
:1005CB00EC30E7100FBF000C0EBE00080DBD000491
:1005DB000BEB6014A2D5EB13FCED92E7FD2274FF3D
:1005EB00FCFDFEFF22E480F8A2D574FF13FC7D8096
:0305FB00E480EFAA
:030000000214687F
:0C146800787FE4F6D8FD7581070213239D
:1005FE00BB010689828A83E0225002E722BBFE02FB
:09060E00E32289828A83E493222D
:10061700EF8DF0A4A8F0CF8CF0A428CE8DF0A42EF7
:02062700FE22B1
:10062900C5F0F8A3E028F0C5F0F8E582158270025C
:060639001583E038F022F9
:10063F00E88FF0A4CC8BF0A42CFCE98EF0A42CFC5A
:10064F008AF0EDA42CFCEA8EF0A4CDA8F08BF0A4D8
:10065F002DCC3825F0FDE98FF0A42CCD35F0FCEB37
:10066F008EF0A4FEA9F0EB8FF0A4CFC5F02ECD39FC
:0F067F00FEE43CFCEAA42DCE35F0FDE43CFC2269
:10068E0075F008758200EF2FFFEE33FECD33CDCC23
:10069E0033CCC58233C5829BED9AEC99E5829840A6
:1006AE000CF582EE9BFEED9AFDEC99FC0FD5F0D683
:1006BE00E4CEFBE4CDFAE4CCF9A88222B800C1B9AD
:1006CE000059BA002DEC8BF084CFCECDFCE5F0CBEB
:1006DE00F97818EF2FFFEE33FEED33FDEC33FCEB24
:1006EE0033FB10D703994004EB99FB0FD8E5E4F9DF
:1006FE00FA227818EF2FFFEE33FEED33FDEC33FCCC
:10070E00C933C910D7059BE99A4007EC9BFCE99ABF
:10071E00F90FD8E0E4C9FAE4CCFB2275F010EF2F04
:10072E00FFEE33FEED33FDCC33CCC833C810D70704
:10073E009BEC9AE899400AED9BFDEC9AFCE899F83F
:0E074E000FD5F0DAE4CDFBE4CCFAE4C8F922D2
:0E075C00C3E49FFFE49EFEE49DFDE49CFC22AE
:0C076A00ECF0A3EDF0A3EEF0A3EFF02202
:10077600A8828583F0D083D08212078D12078D124E
:10078600078D12078DE473E493A3C583C5F0C58373
:10079600C8C582C8F0A3C583C5F0C583C8C582C8CD
:0107A6002230
:00000001FF
